:020000040800F2
:10000000703F00209D01000863250008E9210008D9
:1000100061250008F90200087F4F00080000000079
:10002000000000000000000000000000212F000878
:10003000090400080000000085250008232F00089F
:10004000B7010008B7010008B7010008B7010008B0
:10005000B701000887250008B7010008B7010008AC
:10006000B7010008B7010008B7010008B701000890
:10007000B7010008B7010008B7010008B701000880
:10008000B7010008B7010008B7010008B701000870
:10009000B7010008B7010008B7010008B701000860
:1000A000B7010008B7010008B7010008B701000850
:1000B000B7010008B7010008B7010008B701000840
:1000C000B7010008B7010008B7010008B701000830
:1000D000B7010008B7010008B7010008B701000820
:1000E000B7010008B7010008B7010008B701000810
:1000F000B7010008B7010008B7010008B701000800
:10010000B7010008B7010008B7010008B7010008EF
:10011000B7010008B7010008B7010008B7010008DF
:10012000FD020008B7010008B70100080903000834
:10013000B7010008B7010008B7010008B7010008BF
:10014000B7010008B7010008B7010008B7010008AF
:10015000B7010008B7010008B7010008B70100089F
:10016000B7010008B7010008B7010008B70100088F
:10017000B701000879250008B70100080000000059
:10018000B7010008B7010008DFF80CD000F08CF8C8
:100190000048004749660008703F00200648804735
:1001A00006480047FEE7FEE7FEE7FEE7FEE7FEE75C
:1001B000FEE7FEE7FEE7FEE7AD2F00088901000835
:1001C0002DE9F05F0546002092469B46884606468C
:1001D000814640241BE0284641464746224600F01F
:1001E00053F853465A46C01A914110D31146184647
:1001F000224600F03AF82D1A67EB01084F462246D6
:100200000120002100F031F817EB00094E41201EBB
:10021000A4F10104DFDC484631462A464346BDE8E6
:10022000F09F40EA01039B0703D009E008C9121FB1
:1002300008C0042AFAD203E011F8013B00F8013BA0
:10024000521EF9D27047D2B201E000F8012B491ECC
:10025000FBD270470022F6E710B513460A46044663
:100260001946FFF7F0FF204610BD202A04DB203A94
:1002700000FA02F1002070479140C2F1200320FAF9
:1002800003F3194390407047202A04DB203A21FAF7
:1002900002F00021704721FA02F3D040C2F120029F
:1002A0009140084319467047064C074D06E0E06848
:1002B00040F0010394E8070098471034AC42F6D3AD
:1002C000FFF766FF6C7F00088C7F0008084810B5B8
:1002D0004168084BD9601961016881F308884FF4BF
:1002E000404102F03FF91869BDE8104000470000A6
:1002F00000C0000800000020FEE70000014800F0F8
:1003000053BA0000F4050020014800F04DBA000087
:100310009405002001681823CAB2103AB2FBF3F228
:10032000054B6FF30901032A9B5CC36500D9091DC6
:100330008165084670470000F87A000810B501464C
:1003400000208B698A6A4FF0C07453B1B3F5005F27
:1003500015D072B1012A0CD0022A0AD0032A09D181
:1003600004E01AB1012A06D0022A03D1C96AC901E0
:1003700000D5012010BDC96AA142FAD010BD002AE3
:10038000F7D0012AF2D0022AF3D0032AF3D010BD0D
:1003900030B50468256825F480252560046863600D
:1003A0008368402B036803D099600068C26030BD49
:1003B0009A600068C16030BD10B500224FEA0201AA
:1003C00000EB8203521CC3F888130F2AF8D30022D3
:1003D0004FF400738418521C84F81C119A42F9D30C
:1003E0000170417001228270C0F8C8130276402368
:1003F0008371417680F81C1380F81D2380F81F1349
:1004000080F81E13002010BD70477047002200F0D6
:1004100001B8000030B50E4B054601205C7A002C77
:1004200014D1587A1C54587A03EB800045605D7AE9
:1004300003F108002A54587A421C5A72303008706E
:100440003A2048702F208870CC70002030BD00000A
:10045000640F0020002229B101291AD002291BD0E3
:100460004FF440720E490B6823F440730B600B6825
:1004700013430B600A6822F0F8020A600A6802233C
:1004800003EBC00002430A60086840F48030086053
:1004900070474FF48072E5E74FF40072E2E7000026
:1004A000103C02401348016889050FD5016821F40A
:1004B00000710160016841F400610160016821F48C
:1004C00000610160016841F4007101600168490543
:1004D0000FD5016821F480610160016841F4805109
:1004E0000160016821F480510160016841F480617C
:1004F00001607047003C024070B5054611488542D6
:100500001ED8284600F02AF80F4C20600F4885427C
:1005100006D30F4800F022F82168411A491C00E078
:1005200001210C480022616002602268C0E90221BA
:10053000022101610449083100F0BEFA002800D010
:10054000012070BDFBFF1F082C00002000C0000828
:1005500000000608100D002000F042BB0021A0F1B1
:1005600000634FF4804293423FD3214901449142BA
:1005700001D2012139E01F490144914201D20221F7
:1005800033E01D490144914201D203212DE01B4972
:100590000144B1F5803F01D2042126E018494218F8
:1005A0004FF400318A4201D205211EE0154A02446F
:1005B0008A4201D2062118E0134A02448A4201D23B
:1005C000072112E0114A02448A4201D208210CE0BC
:1005D0000F4A02448A4201D2092106E00D4A104422
:1005E000884201D20A2100E00B2108467047000032
:1005F00000C0FFF70080FFF70040FFF70000FFF7A3
:100600000000FEF70000FCF70000FAF70000F8F722
:100610000000F6F70000F4F7064A10B5904207D83C
:100620000A4601460023022000F09CFA002800D070
:10063000012010BDFBFF1F0808490A6822F4407220
:100640000A600A6842F004020A600A684FF48033C4
:1006500043EA002002430A6070470000103C024059
:10066000064A136823F44073136013681360136819
:1006700043F001031360017070470000103C02401A
:10068000084910B50C6824F440740C600C6844F4FC
:1006900040740C600C6844F001040C60026043601C
:1006A00010BD0000103C0240074A136823F4407359
:1006B0001360136843F480731360136843F00103FD
:1006C0001360018070470000103C0240074A136825
:1006D00023F440731360136843F4007313601368CA
:1006E00043F001031360016070470000103C0240BA
:1006F00017490868C206174805D5C26942F01002BA
:10070000C26110220A600A68920605D5C26942F0E9
:100710000802C26120220A600A68520605D5C26931
:1007200042F00402C26140220A600A68120605D53E
:10073000C26942F00202C26180220A600A6892071E
:1007400005D5C26942F02002C261022008607047EC
:100750000C3C0240240D002070B5114904460020D5
:10076000C86100F031FB06460E4D09E0601C07D061
:1007700024B100F029FB801BA04201D9032070BDE9
:100780002868C003F2D42868C00701D0012028607F
:10079000286810F0F200F2D0FFF7AAFF012070BD28
:1007A000240D00200C3C02402DE9F84304464FF094
:1007B0000009CDF8009063484FF41651A56D00680C
:1007C000B0FBF1F72E6894F85C10082000FA01F1F4
:1007D00031420FD021680A6852070BD50A6822F00F
:1007E00004020A6094F85C108840A860606D40F0D4
:1007F0000100606594F85C104FF0010808FA01F000
:10080000304208D021684969090604D5A860606DA6
:1008100040F00200606594F85C100420884030428B
:1008200008D021680968890704D5A860606D40F088
:100830000400606594F85C1010208840304218D0A5
:1008400021680968090714D5A86020680168490370
:1008500004D50068000308D5A16C07E00168C9054C
:1008600003D4016821F008010160216C09B1204620
:10087000884794F85C1020208840304231D02168AD
:100880000968C9062DD5A86094F8350005282068A8
:10089000016806D0490347D5006800031DD4616C88
:1008A0001CE021F0160101602068416921F08001FF
:1008B0004161206C08B9A06C20B12068016821F06A
:1008C0000801016094F85C103F208840A86084F81B
:1008D000349084F83580216D1FE0E16B09B120462A
:1008E0008847606D00282BD0606DC00714D00520AC
:1008F00084F835002068016821F00101016000984A
:10090000401C0090B84203D820680068C007F6D1A8
:1009100084F8349084F83580E16C002910D001B05F
:100920002046BDE8F04308470168C905D5D40168F1
:1009300021F01001016084F8349084F83580CCE710
:10094000BDE8F8834C0000202DE9F041044600F09A
:100950003BFA06465CB1002584F83450022084F846
:1009600035002068016821F0010101600DE00120DF
:10097000BDE8F08100F028FA801B052805D9202069
:100980006065032084F83500F2E720680068C0073E
:10099000F0D12268116820480140D4E901031843CE
:1009A000D4E903363343184363691843A3691843F2
:1009B000E3691843236A18430843616A042903D191
:1009C000D4E90B1319430843106020684069666A34
:1009D00020F0070130460E43012704280CD1A06AFD
:1009E0000643E06A40B12046FFF7A8FC20B1402052
:1009F000606584F83570BAE7206846612046FFF7E5
:100A000089FC94F85C203F2191408160656584F801
:100A100035700020ACE700003F8010F02DE9F04178
:100A20000446866D90F83400002501280DD0012081
:100A300084F8340094F835700020012F07D084F832
:100A4000340002252846BDE8F0810220FBE702279A
:100A500084F8357060652046FFF79AFC94F85C10C6
:100A60003F208840B0602068016841F016010160B5
:100A70002068416941F080014161206C20B120680B
:100A8000016841F0080101602068016841F001013E
:100A90000160D7E770B5044600F096F90546601C82
:100AA00002D004480078044400F08EF9401BA042B4
:100AB000FAD370BD400000202DE9F04704462248DB
:100AC0000F46017E01290AD00121804601764CF2B1
:100AD00050394846FFF740FE020003D02FE00220C5
:100AE000BDE8F0874FF0FF3038602068174D0128CF
:100AF00001D0A6681CE0207C6168FFF79DFD484698
:100B0000FFF72AFE0246286820F00400286014E05F
:100B1000217C3046FFF79EFC4846FFF71DFE020091
:100B2000286820F0FA00286001D03E6005E0761CBD
:100B3000D4E902100844B042EAD8FFF7B3FC002120
:100B400088F818101046CBE7240D0020103C024016
:100B50000348016841F00041016000207047000037
:100B6000103C02402DE9F0471B4E05461446307EEE
:100B70001F468946012808D0012030764CF25038B3
:100B80004046FFF7E9FD18B114E00220BDE8F08708
:100B90009DB1012D16D0022D19D022463B46484664
:100BA000FFF76EFD4046FFF7D7FD0C490A6822F0BB
:100BB00001020A6000213176E8E7E1B24846FFF71A
:100BC0004FFDEFE7A1B24846FFF76EFDEAE7214689
:100BD0004846FFF77BFDE5E7240D0020103C02406E
:100BE000074900200A68002A09DA054A054B0C3A31
:100BF0001360054B13600968002900DA0120704773
:100C0000103C024023016745AB89EFCD2DE9F84F39
:100C1000DFF87CB100224FF001084FF0030A4FF0DB
:100C20000F090BF1040E00BF0B6808FA02F4234011
:100C3000A3426ED14D68022D01D0122D0ED1D508E0
:100C400000EB850CDCF820505607F70E09FA07F682
:100C5000B5430E69BE402E43CCF8206006685500AF
:100C60000F790AFA05FC07F0030726EA0C06AF40E5
:100C7000374307604E68012E05D0022E03D0112E97
:100C800001D0122E0ED18668CF6826EA0C06AF403E
:100C9000374387604668A6430C79C4F30014944038
:100CA00034434460C6688C6826EA0C06AC40344382
:100CB000C4604C68E40065D5364C256845F4804531
:100CC0002560246822F0030504F480440094324C2B
:100CD0002E19D6F8084895072F0F09FA07F5AC43E7
:100CE0002E4DA84201D1002524E02D4DA84201D16E
:100CF00001251FE02B4DA84201D102251AE02A4D03
:100D0000A84201D1032515E0284DA84202D10425AF
:100D100010E037E0264DA84201D105250AE0254D17
:100D2000A84201D1062505E0234DA84201D107259F
:100D300000E00825BD402543C6F80858DBF8004010
:100D40005D464E689C43F60300D51C432C60DEF8DC
:100D5000004075464E689C43B60300D51C432C608A
:100D60000B4D08352C684E689C43F60200D51C4399
:100D70002C60074D0C352C684E689C43B60200D59C
:100D80001C432C60521C102AFFF44EAFBDE8F88FB4
:100D9000003C014044380240003001400000024065
:100DA0000004024000080240000C02400010024013
:100DB0000014024000180240001C02400AB1816188
:100DC00070470904FBE70000014880687047000095
:100DD00040000020D0F8C00202F03BBCD0F8C002B6
:100DE00002F041BC006803F01BBE006803F01CBEAB
:100DF00001EB810100EBC10090F85C00704701EB52
:100E0000810100EBC100C06C704710B5044690F83A
:100E1000B802012809D0012084F8B802206803F044
:100E20000EFE002084F8B80210BD022010BD2DE98E
:100E3000FE430546DDE90B7095F8B842DDF828C0A1
:100E4000012C1CD001EB81044FF0010905EBC40417
:100E500085F8B892002684F83D6084F83830A4F80C
:100E6000400084F8391084F83F7002F07F0884F85D
:100E70003A805FEA026805D584F83B9004E00220DE
:100E8000BDE8FE8384F83B6084F83CC0CDF800C028
:100E9000CDE90170286803F033FE85F8B862EFE70A
:100EA00070472DE9F04101EB8104DDE907E700EB34
:100EB000C404DDF818C084F83B20022684F83F30D3
:100EC000BCF1000F0AD084F84260002553B1012B19
:100ED0002BD0022B0FD0032B13D10CE0032584F869
:100EE0004250F2E7BCF1010F0BD152B9D7B9012240
:100EF00084F8512003E0AAB194F85020AAB184F8F4
:100F00004260C4E911E784F85C50E56484F8391064
:100F100084F85D50027C04F138010068BDE8F041BE
:100F200003F06ABE94F85120E8E784F84250E8E7FD
:100F30002DE9F04104460068064603F07CFD0128D7
:100F40006FD1206803F087FF00286AD0206803F083
:100F500082FF800203D521684FF4001048612068A9
:100F600003F079FFC00203D521684FF48010486177
:100F7000206803F070FF400103D521684FF08060C6
:100F80004861206803F067FF800702D521680220CE
:100F90004861206803F05FFF800010D5D6F8400458
:100FA00020F02E00C6F840042046FFF717FF01216D
:100FB000206803F035FF21684FF000504861206839
:100FC00003F049FFC00102D5204601F079F82068FE
:100FD00003F041FF000705D5204600F0C2F8216864
:100FE00008204861206803F036FF800124D520687E
:100FF00003F0FEFD074600254FF0010815E000BF95
:1010000005F00F0108FA01F038420DD006EB45104B
:10101000D0F80005E9B20004204603D500F018FE20
:1010200002E01CE000F02AFF6D1CA068A842E7D88F
:1010300021684FF000704861206803F00CFFC04346
:10104000C0060CD42068816921F01001816120461E
:1010500001F092F82068816941F010018161BDE8DA
:10106000F08170B58AB0040005D094F8B902256803
:10107000002618B107E001200AB070BD84F8B862FC
:10108000204600F027F8032084F8B902E86BC00579
:1010900000D42661206803F06DFC04F110012822C1
:1010A0000D466846FFF7BDF894E80F0003F00CFC0E
:1010B0000121206803F0FAFE282229466846FFF73E
:1010C000B0F894E80F0003F03FFE012084F8B90265
:1010D0000020D1E710B586B0044614216846FFF71A
:1010E000B9F817492068884227D1164C002021689A
:1010F00041F002012160216801F0020105914FF4E5
:10110000404100910221CDE90110032003900C2001
:10111000049069460C48FFF779FD206840F00050C4
:1011200020602068002200F00050059005214D202D
:1011300000F0B4F84D2000F0A3F806B010BD000098
:10114000000004403038024000040240D0F8C002E1
:1011500002F016BBD0F8C00202F016BB006803F024
:101160008CBED0F8C00202F0C3BA10B5044690F8A5
:10117000B80201280DD0012084F8B802206803F0DD
:1011800027FC0121206803F00DFC002084F8B80240
:1011900010BD022010BD10B5044690F8B802012819
:1011A00009D0012084F8B802206803F097FE0020DF
:1011B00084F8B80210BD022010BD0000024881680A
:1011C0000278114481607047400000200B4810B540
:1011D000016841F400710160016841F480610160BF
:1011E000016841F480710160032000F077F800206D
:1011F00000F006F800F024F8002010BD003C02408A
:1012000070B50D4D04464FF47A712878B1FBF0F0BB
:101210000A490968B1FBF0F000F006FD48B9102C4E
:1012200007D200222146501E00F038F800206C60E2
:1012300070BD012070BD0000400000204C00002067
:101240000E4808B5016841F480410160006800F46F
:10125000804000900948001F016841F08051016002
:101260000068002200F0805000901146052000F038
:1012700015F8BDE80840052000F002B844380240E7
:10128000002809DB00F01F02012191404009800085
:1012900000F1E020C0F8001170470000F0B40E4BE0
:1012A0001B680C46C3F30223C3F10705042D00D9C4
:1012B0000425191D072901D2002300E0DB1E0126A9
:1012C00006FA05F1491E214099409E40761E1640BF
:1012D0003143F0BC03F054BE0CED00E0064900F0D1
:1012E000070208684FF6FF03184040EA0220034A4D
:1012F00010430860704700000CED00E00000FA05A4
:101300002DE9F0470E46050065D0DFF81481D8F8C6
:101310000000F7B200F00F00B04207D288F800706A
:10132000D8F8000000F00F00B04254D128683D4CBE
:10133000810712D5400703D5206840F4E0502060B3
:101340002878000703D5206840F4604020602068BA
:10135000A96820F0F000084320602878C0072DD04D
:10136000304968680839012812D0022813D00328B0
:1013700011D00968890700292DDA216821F00301BD
:1013800001432160FFF720FD814641F2883A0EE0DB
:1013900009688903EFE709688901ECE7FFF714FDA5
:1013A000A0EB0901514502D90320BDE8F087206870
:1013B000696800F00C00B0EB810FEFD1D8F8001095
:1013C000404601F00F01B14207D90770006800F0F4
:1013D0000F00B04201D00120E7E72878400705D58B
:1013E0002068E96820F4E05008432060287800076E
:1013F00006D52068296920F4604040EAC1002060D9
:1014000000F016F82168084AC1F30311515CC84086
:10141000064908600020FFF7F3FE0020C5E7000042
:10142000003C024008380240007B00084C000020CD
:10143000154810B5006810F00C02144813D0411084
:10144000042A0FD0082A0ED10F4C241F22682368CB
:1014500002F03F025B0207D52068C0F38810A0FBB2
:10146000010106E0084610BD2168C1F38811A1FB07
:1014700000010023FEF7A4FE2168C1F30141491CCD
:101480004900B0FBF1F010BD083802400024F40020
:101490002DE9F84F050076D02878DFF8F8B2BE4C79
:1014A000C00749D0DBF800105846C1F3810101297B
:1014B00008D00068C0F3810002280AD1201D00680E
:1014C000400206D52068800336D568680028E2D03F
:1014D00032E06868B0F5803F10D0B0F5A02F2068EA
:1014E00010D020F480302060206820F4802020601C
:1014F0006868A0B1FFF768FC06460CE0206840F47D
:101500008030F4E740F480202060F7E7FFF75CFCD0
:10151000801B642873D820688003F7D50CE0FFF7A0
:1015200053FC064605E000BFFFF74EFC801B642815
:10153000F0D820688003F7D42878DFF8608280072D
:101540004FF000093ED5DBF80010584611F00C0FA3
:1015500009D00068C0F3810002280BD18D48001F1C
:101560000068400206D42068800715D5E868012885
:1015700009D111E0E868B8B10120C8F80000FFF710
:1015800023FC064605E002E1FFF71EFC801B022853
:10159000C0D820688007F7D52068296920F0F800B6
:1015A00040EAC10020600DE0C8F80090FFF70CFC95
:1015B000064604E0FFF708FC801B02281FD82068BD
:1015C0008007F7D42878000722D5724E74486969DD
:1015D0006C3671B101210160FFF7F6FB074604E0AC
:1015E000FFF7F2FBC01B022809D830688007F7D547
:1015F0000EE0C0F80090FFF7E7FB074605E083E048
:10160000FFF7E2FBC01B02287ED830688007F7D4C2
:101610002878400768D5DFF87CA100270AF1380A4E
:10162000DAF80000C0000BD4DAF8001041F0805165
:10163000CAF80010DAF80000012700F0805000908E
:10164000584E3068C00510D4306840F48070306067
:10165000FFF7BAFB009005E0FFF7B6FB0099401AD0
:10166000022851D83068C005F6D54A4EA8686836B9
:1016700001280FD00528306810D020F0010030601C
:10168000306820F004003060A868B8B1FFF79CFB18
:1016900000900FE0306840F00100F4E740F00400F3
:1016A0003060F7E7FFF790FB0099411A41F288306C
:1016B000814264D830688007F4D50EE0FFF784FBE0
:1016C000009007E0FFF780FB0099411A41F2883053
:1016D000814254D830688007F4D42FB1DAF8001072
:1016E00021F08051CAF80010A869C0B3DBF80010DF
:1016F000C1F3810102294AD00228484607D0C8F820
:101700006000FFF761FB00E039E005463AE047463C
:10171000C8F86000FFF758FB064604E0FFF754FBEB
:10172000801B02282BD820688001F7D4D5E9070157
:101730000843A96A1C4A490802EB01416A6A41EA66
:101740008211084395F82C1040EA01611148001FEE
:10175000016001203866FFF737FB054605E014E01D
:10176000FFF732FB401B022809D820688001F7D51B
:101770000BE000BFFFF728FB401B022802D9032023
:10178000BDE8F88F20688001F4D40020F8E701203C
:10179000F6E70000083802400038024000004742E7
:1017A000800E4742007000400000FFFF704770B598
:1017B000040005D00025A56294F8510010B106E0A0
:1017C000012070BD84F85050204600F031F802200E
:1017D00084F851002068016821F040010160D4E9DB
:1017E00001010843D4E90312114308436169084326
:1017F000218B01F400710843E1690843216A084321
:10180000A16A084321680860A069042101EA104028
:10181000616A0843216848602068C16921F4006159
:10182000C1616565012084F85100002070BD000091
:101830002DE9F04186B0064614216846FEF70AFD00
:10184000454B3168454802250327454A0024994203
:101850004DD1424914310B6843F480530B60096841
:1018600001F480510591016841F0010101600068B7
:10187000029400F001000590E020CDE9000505206C
:10188000CDE9037069461046FFF7C0F9364D35487B
:101890007F06E5E8020740204FF48068A5E81101C3
:1018A000314845F81449AC61EC612C626C62FFF779
:1018B0004BF808B1FEF7A9FDB564AE632A4D29487F
:1018C000603548382860C5E90174C5E903486C6192
:1018D000AC61EC612C6228466C62FFF735F808B108
:1018E000FEF793FDF564AE6306B0BDE8F0811F4BD3
:1018F0009942F9D1194910310B6843F400430B6048
:10190000096801F400410591016841F0010101609D
:10191000016801F001010591016841F002010160D7
:101920000068CDE9024700F0020005904FF4004046
:10193000CDE900050626694604961046FFF766F9CC
:101940003820CDE90005CDE90247694604960848EC
:10195000FFF75CF9C8E70000003001403038024072
:10196000000002405864024094050020003C004002
:10197000000402402DE9F84F044690F8500000277B
:101980000A9E1D4692468B464FF0010901280ED053
:10199000012084F85000FFF717FA804694F85100B0
:1019A000616801280CD0B1F5827F07D102E00220E6
:1019B000BDE8F88FA16809B9042801D00227C2E068
:1019C000BBF1000F27D0BAF1000F24D01DB394F85B
:1019D0005100042802D0052084F8510000206065E1
:1019E000C4F838A0E587A587C4F830B0E586A58699
:1019F0002064606420680168490603D4016841F0EE
:101A000040010160E068B0F5006F606805D0E8B3A0
:101A1000012D46D07FE0012795E008B1012D39D195
:101A2000206B21680088C860206B801C2063E08EDA
:101A3000401EE0862EE02068816889070FD5E18E80
:101A400069B1B9F1010F0AD1216B0988C160206B1E
:101A5000801C2063E08E401EE0864FF00009206865
:101A60008168C9070CD0E18F51B1C068A16B0880B3
:101A7000A06B801CA063E08F401EE0874FF001093F
:101A8000FFF7A2F9A0EB0800B04200E009E001D3A3
:101A9000701C50D1E08E0028CDD1E08F0028CAD133
:101AA0003FE0206B216800780873206B401C2063A6
:101AB000E08E401EE0862EE02068816889070FD501
:101AC000E18E69B1B9F1010F0AD1216B0978017377
:101AD000206B401C2063E08E401EE0864FF0000922
:101AE00020688168C9070CD0E18F51B1C068A16B33
:101AF0000870A06B401CA063E08F401EE0874FF091
:101B00000109FFF761F9A0EB0800B04202D3701C95
:101B100001D010E07EB1E08E0028CDD1E08F00280A
:101B2000CAD142463146204600F076FD28B1012751
:101B30002020606507E0032705E0A06818B9206849
:101B4000C16880680090012084F85100002084F86A
:101B5000500038462CE700002DE9F041044690F88B
:101B600050000026012809D0012784F8507094F80D
:101B700051000025012804D0022649E00220BDE8DA
:101B8000F08189B182B1032084F851006565216339
:101B9000A286E286A56365642564A587E587A068BB
:101BA000B0F5004F02D006E0012631E02068016860
:101BB00041F480410160A16C17480864A16C17488A
:101BC000C863A16C1648C864A06C0565E38E2268E2
:101BD000216B0C32A06CFEF721FF38B1606D40F034
:101BE00010006065012684F8517011E020680168DA
:101BF000490603D4016841F0400101602068416852
:101C000041F0200141602068416841F002014160DB
:101C100084F850503046B2E7AB250008B5250008DF
:101C2000892500087047704710B5401EB0F1807FCD
:101C300001D3012010BD4FF0E02460610F21601737
:101C400003F09EF90020A06107202061002010BD54
:101C50002DE9F05F074600680E4600EB4114D4F80A
:101C600008054FF0040B420701EB86004FF0050A10
:101C70004FF0100807EBC00508D5C4F808B5D4F834
:101C80000C0540F00200C4F80C0530E0D4F808055B
:101C9000800601D5202028E0D4F808054FF0080977
:101CA00000070FD5D4F80C0540F00200C4F80C056D
:101CB00085F85DA0C4F80885C4F80895386802F076
:101CC000BEFE14E0D4F80805400510D5D4F80C0584
:101CD00040F00200C4F80C05386802F0B0FEC4F809
:101CE000088585F85D904FF48060C4F80805D4F845
:101CF000080580050ED5D4F80C0540F00200C4F8A4
:101D00000C05314604F5A164386802F098FE4FF4E2
:101D1000007090E0D4F808054FF00001C0074FF0C4
:101D2000010237D0386930B1A86CD4F81035C3F34C
:101D30001203C01AE86485F85D20A965C4F8082577
:101D400095F83F0020B1022802D003280FD01AE0F6
:101D5000D4F80C0540F00200C4F80C05314604F537
:101D6000A164386802F06BFEC4F800800BE0D4F880
:101D7000000540F00050C4F8000585F85C203146AD
:101D80003846FFF78DF815F8500F80F001002870E5
:101D9000BDE8F09FD4F80805800735D5D4F80C05C8
:101DA00020F00200C4F80C0595F85D00022301281C
:101DB00008D0052809D006280AD0082808D003280A
:101DC0001FD015E085F85C2012E085F85CA00FE0DC
:101DD000A86D401CA865032813D9A96585F85CB0D7
:101DE000D4F8000520F0804040F00040C4F8000521
:101DF000C4F8083595F85C2031463846FFF750F8AE
:101E0000C6E785F85C30EBE7D4F80805000614D582
:101E1000D4F80C0540F00200C4F80C05A86D31465A
:101E2000401CA865062085F85D0004F5A1643868AB
:101E300002F005FE80202060AAE7D4F80805C0065D
:101E4000A6D595F83F00032803D020B1022802D080
:101E500011E0A96505E0A965386960B9032085F836
:101E60005D00D4F80C0540F00200C4F80C053146C2
:101E7000386802F0E4FDC4F8088589E72DE9F047E9
:101E8000026802EB4114D4F808254FF0040352070E
:101E900009D5C4F80835D4F80C0540F00200C4F8A0
:101EA0000C05BDE8F087D4F8082501EB81059606FE
:101EB0004FF0000200EBC5054FF0020C15D52023B2
:101EC000C4F8083595F83D30012BEAD185F83D205E
:101ED00085F85CC0D4F80C2542F00202C4F80C2549
:101EE0000068BDE8F04702F0AABDD4F8086577069F
:101EF0004FF0010611D585F85D3085F83D60AA6583
:101F0000D4F80C2542F00202C4F80C25006804F550
:101F1000A16402F094FD402010E0D4F80875BF05DC
:101F20000ED5D4F80C2542F00202C4F80C25006846
:101F300004F5A16402F083FD4FF400702060B0E767
:101F4000D4F80875FF070FD0AA65D4F80C2542F025
:101F50000202C4F80C25006804F5A16402F06FFDCC
:101F6000266085F85D609CE7D4F808754FF0050998
:101F70005FEA07784FF008070DD5C4F80875D4F864
:101F80000C2542F00202C4F80C25006802F057FD4F
:101F900085F85D9085E7D4F808854FF0100A5FEA70
:101FA000C86818D5AA65032285F85D2095F83D20FC
:101FB00022B995F83C200AB985F83D60D4F80C2583
:101FC00042F00202C4F80C25006804F5A16402F096
:101FD00036FD5046B2E7D4F808855FEA08680FD5A9
:101FE000D4F80C2542F00202C4F80C25006804F570
:101FF000A16402F024FD062085F85D0080209DE7A5
:10200000D4F808855FEA485812D5D4F80C2542F078
:102010000202C4F80C25006804F5A16402F00FFD6B
:10202000C4F800A04FF48060206085F85D7038E748
:10203000D4F80875BF0796D5D4F80C7527F00207B9
:10204000C4F80C7595F85D70012F0AD0032F17D0D6
:10205000042F15D0052F16D0062F17D0082F15D016
:1020600027E085F85C6095F83F20022A01D0032A1A
:102070001FD195F8512082F0010285F8512018E017
:1020800085F85CC015E085F85C9012E0AE6D761CBA
:10209000AE65032E03D9AA6585F85C3001E085F8AA
:1020A0005CC0D4F8002522F0804242F00042C4F81F
:1020B0000025C4F808C595F85C20FEF7F1FEF0E6AF
:1020C0007CB504680546D4F840040190D4F8400477
:1020D00020F02E000090019880070DD50198C007D0
:1020E00006D0A06920F00051A1612846FEF772FEDB
:1020F000009840F0020000900198000732D5009847
:1021000040F008000090019840071DD5A8690228FA
:1021100003D0E86801280CD00FE00198C0F34140DB
:102120000228286803D0012102F07AFE05E002218E
:10213000FAE74EF66020C4F804042846FFF70AF8D0
:102140002846FEF747FE0DE02846FEF7FFFFD4F8CD
:10215000400420F02E00C4F840042868816941F052
:102160000051816101988006009802D540F020005E
:102170000090C4F840047CBD2DE9F041024600689F
:102180000646016AC1F3434301F00F07C1F30A1485
:10219000022B25D1002C23D007EB870102EBC105D0
:1021A000696C00291CD0224602F059FE686C20445C
:1021B0006864E86C2044E86406EB4710D0F810151A
:1021C000084A11420CD0D0F8001521F0804141F0AE
:1021D0000041C0F8001515F8500F80F0010028707C
:1021E000BDE8F0810000F81FFEE700002DE9F04F88
:1021F00000242DED028BADF60C0DFEF7ADF94E4D22
:102200002846FEF779F900287ED1CDF804582D1420
:102210000126294601A8FEF71DF84FF2C42B0DF147
:10222000040816233F22DC210A20CDF800B000F07C
:1022300074FAAA469FED418ADFF804910DF608036F
:102240005546524601A93F4803F02EFDBDF80878D7
:10225000AF4200D20026002513E000BFDDF80408DD
:1022600058F805102844FEF7D7F948B1354803F06F
:10227000D5FB00200DF60C0DBDEC028BBDE8F08FF8
:102280002D1DBD42EAD3DDF8040849F288433844E5
:10229000CDF804082C48641C0088984202D0A0F5B0
:1022A000AE4161394FF4483204FB02F100EE101ADE
:1022B00089ED028A9842F8EE400A99ED050AB8EED7
:1022C000401A80EE810AD9ED020A20EE200ABCEE07
:1022D000C00A10EE102A92B2A9F804201AD0A0F574
:1022E000AE41613916D0A0F5EE41963912D0B2F563
:1022F000A07F07D24FF4FC60009087236E2100205E
:1023000000F00BFA012E00E000E097D001200DF65E
:102310000C0DB1E7B2F5A07FF4D202EBC200C00011
:102320006421B0FBF1F03F3082B21623DC210A2099
:10233000CDF800B0E4E7000000C00008CDCC4C4070
:1023400000000020B4020020240000200D4808B541
:10235000016841F4800101600068002200F48000FF
:10236000009011463820FEF799FF3820FEF788FFCD
:10237000002211463B20FEF791FFBDE808403B20BC
:10238000FEF77EBF3038024010B504490448FEF71E
:102390003DF80249491E087010BD00001F000020D2
:1023A000886D00082DE9F04387B014216846FDF7D9
:1023B00051FF30480024016841F08001016001684C
:1023C00001F080010591016841F00101016001689F
:1023D00001F001010591016841F00201016001680D
:1023E00001F002010591016841F0080101600168F6
:1023F00001F008010591016841F0040101600068E5
:10240000012500F00400059020200226CDE90005FA
:10241000DFF86490CDE9024669464846FEF7F6FBD0
:102420006F0300970396DFF85480CDE901546946A5
:102430004046FEF7EBFB002239464046FEF7BEFC65
:102440004020CDE90005CDE9024669464846FEF741
:10245000DDFB012240214846FEF7B0FC2802CDE911
:102460000005CDE9024669460548FEF7CFFB07B0F7
:10247000BDE8F0833038024000080240000C024002
:1024800000000240104810B50E4901604FF48271FF
:102490004160002102228160C0E9031201224261F1
:1024A000520282611022C0E90721416281620A2141
:1024B000C162FFF77CF9002803D0BDE81040FDF7AA
:1024C000A4BF10BD00300140E4040020104810B546
:1024D0000E4901604FF48271416000210222816047
:1024E000C0E9031201224261520282610822C0E95E
:1024F0000721416281620A21C162FFF758F9002871
:1025000003D0BDE81040FDF780BF10BD003C004087
:102510003C05002010B500220B490C4801F071F871
:1025200008B1FDF772FF0A49084802F0DBF808B16C
:10253000FDF76BFF054802F01CF9002803D0BDE849
:102540001040FDF762BF10BD894700085406002007
:1025500058000020014801F0B1BF000054060020DF
:10256000FEE77047024A114001430248016070478C
:1025700080FFFF1F08ED00E00148FEF7D9BC000016
:10258000300A00207047704710B5806B01684A68B8
:1025900022F003024A60416D41F0100141650121C2
:1025A00080F85110FFF702F910BD10B5806BFFF7EE
:1025B0003AFB10BD38B50546846BFEF705FC0246B4
:1025C00028680068C00523D42068416821F02001F4
:1025D00041602068416821F0020141606421204689
:1025E00000F01AF818B1606D40F020006065A06836
:1025F000002118B92068C26880680090E186012037
:1026000084F85100606D18B12046FFF7CFF838BD4F
:102610002046FFF707FB38BD38B504461248134B78
:102620000068B0FBF3F04FF47A7358430090606891
:10263000B0F5827F0DD10B4600920022802120460A
:1026400000F024FC70B1606D40F020006065032054
:1026500038BD009830B1401E009020688068C043AB
:102660000006F6D5002038BD4C00002000366E0173
:102670002DE9F04107461C4615460E462A2000F07B
:1026800079F9380A00F04CF9F8B200F049F9280A53
:1026900000F046F9E8B200F043F92B2000F06AF9A7
:1026A000300A00F03DF9F0B200F03AF9200A00F0EB
:1026B00037F9E0B200F034F9BDE8F0412C2000F029
:1026C00059B970B5054600214FF4163440F2DF13B6
:1026D00040F23F120846FFF7CBFF02E0284600F029
:1026E0003DF9641EFAD270BD00224FF4005101483A
:1026F000FEF764BB000C0240012251030148FEF7C3
:102700005DBB0000000C024010B5144600F034FA26
:102710002046BDE8104000F021B970B502FB03F47B
:102720000B4402445B1E521E9BB292B2049DFFF703
:102730009FFF02E0284600F011F9641EFAD270BD36
:1027400070B586B014216846FDF784FD1448002456
:10275000016841F008010160016801F0080105917C
:10276000016841F0040101600068012500F00400E7
:1027700005904FF430500226CDE90005CDE9024620
:1027800069460848FEF742FA4020CDE90005CDE948
:10279000024669460448FEF739FA06B070BD0000EB
:1027A00030380240000C02400008024010B5094CCD
:1027B000002240212046FEF701FB6420FEF76AF963
:1027C000012240212046FEF7F9FABDE810403220F0
:1027D000FEF760B9000802402DE9FF5F80461D4604
:1027E0000C468B46580700D0012000EBD500690845
:1027F00010FB01F000F0FF0921484FF4F071203A7E
:102800004160D0B20026029036E0182D36D10298F1
:102810001C4900EBC00001EB80004FF0000A875D0F
:10282000380602D54FF6FF7203E00E9828B941F63C
:10283000C30221464046FFF767FF11497806641C32
:102840004968070EA4B2884518D2A4EB0B00A84231
:1028500009D10B4908F101001FFA80F849685C466C
:1028600088450BD206E00AF1010000F0FF0ABAF138
:10287000080FD5D3761CF6B24E45C6D3BDE8FF9FF0
:10288000240000209C6D00082DE9F84F044600F05C
:10289000FF0910190D46DDE90AB61FFA80F858192C
:1028A00087B24FF0000A12E0444503D305EB0B005A
:1028B0004C4685B2BD420FD25B4629462046CDF834
:1028C00000A0FFF789FF04EB5B0084B2761C32782E
:1028D000A2F120005E28E7D9BDE8F88F2DE9F0418C
:1028E0000D4F0C4605464FF400660022314638462F
:1028F000FEF764FA012291023846FEF75FFA22469B
:1029000029460648FFF728F931463846BDE8F04128
:102910000122FEF753BA0000000C0240E40400203C
:1029200031B50C4D4FF40064002221462846FEF7D5
:1029300045FA012291022846FEF740FA0122694633
:102940000548FFF709F9012221462846FEF736FA25
:1029500038BD0000000C0240E404002008B5010A64
:102960008DF800108DF8010002216846FFF7B6FFD0
:1029700008BD000031B50C4D4FF400640022214623
:102980002846FEF71BFA002261102846FEF716FAC9
:10299000012269460548FFF7DFF801222146284653
:1029A000FEF70CFA38BD0000000C0240E4040020E1
:1029B00010B5FFF767FD6E480068016841F04001FF
:1029C0000160FFF7BDFEFFF7F1FE6A4947F296701E
:1029D00008807820FEF75EF81120FFF7CBFF782003
:1029E000FEF758F8F020FFF7C5FFC320FFF798FF68
:1029F000F020FFF7BFFF9620FFF792FF3620FFF78A
:102A0000B9FF4820FFF78CFF2820FFF789FF3A2005
:102A1000FFF7B0FF5520FFF783FFB420FFF7AAFFB1
:102A20000120FFF77DFFB720FFF7A4FFC620FFF7C7
:102A300077FFE820FFF79EFF4020FFF771FF8A2015
:102A4000FFF76EFF0020FFF76BFF0020FFF768FF26
:102A50002920FFF765FF1920FFF762FFA520FFF788
:102A60005FFF3320FFF75CFFC120FFF783FF0620E5
:102A7000FFF756FFC220FFF77DFFA720FFF750FFAB
:102A8000C520FFF777FF1820FFF74AFFE020FFF788
:102A900071FFF020FFF744FF0920FFF741FF0B20F3
:102AA000FFF73EFF0620FFF73BFF0420FFF738FF4C
:102AB0001520FFF735FF2F20FFF732FF5420FFF7D7
:102AC0002FFF4220FFF72CFF3C20FFF729FF1720A4
:102AD000FFF726FF1420FFF723FF1820FFF720FF42
:102AE0001B20FFF71DFFE120FFF744FFF020FFF759
:102AF00017FF0920FFF714FF0B20FFF711FF062037
:102B0000FFF70EFF0420FFF70BFF0320FFF708FF7E
:102B10002D20FFF705FF4320FFF702FF4220FFF7BC
:102B2000FFFE3B20FFF7FCFE1620FFF7F9FE142006
:102B3000FFF7F6FE1720FFF7F3FE1B20FFF7F0FE6E
:102B4000F020FFF717FF3C20FFF7EAFEF020FFF729
:102B500011FF6920FFF7E4FE7820FDF79BFF292095
:102B6000FFF708FFBDE810400020FFF7AABD0000F6
:102B7000E40400202400002070B505460C462A20FD
:102B8000FFF7F8FE280AFFF7CBFEE8B2FFF7C8FE12
:102B90002B20FFF7EFFE200AFFF7C2FEE0B2FFF79F
:102BA000BFFEBDE870402C20FFF7E4BE70B50446C0
:102BB00000F056F90F4E4FF480750022294630463A
:102BC000FEF7FCF8D82000F00BF9C4F3074000F042
:102BD00007F9C4F3072000F003F9E0B200F000F9B0
:102BE000012229463046FEF7E9F8BDE8704000F0C2
:102BF0001DB90000000402402DE9F041DFF85080CB
:102C000014460D4606464FF480770022394640466A
:102C1000FEF7D4F8032000F0E3F8C5F3074000F016
:102C2000DFF8C5F3072000F0DBF8E8B200F0D8F8D1
:102C300004E0A52000F0D4F806F8010B641EA4B24D
:102C4000F7D239464046BDE8F0410122FEF7B6B85A
:102C5000000402402DE9F04707460E4611F0FF0040
:102C6000C0F10001CDB24FEA122402F0FF094FF487
:102C7000807A13D0F0B24042C0B206EB00080CB329
:102C8000501B80B2040A00F0FF092A46314638463C
:102C900000F072F83D44464657462AE06CB155466E
:102CA000641EE4B20CD32A463146384600F064F87C
:102CB00006F5807607F58077F2E73146384621E061
:102CC0004A46FAE7A945F8D9A9EB0500C4B22A4655
:102CD0003146384600F050F841467819224611E056
:102CE0003A463146284600F047F805F5807506F566
:102CF0008076641EE4B2F3D2B9F1000006D0024639
:102D000031462846BDE8F04700F036B8BDE8F08708
:102D100030B587B014216846FDF79CFA1348016866
:102D200041F00201016000684FF4807400F002007D
:102D300005900120CDE90040029002200C4D039047
:102D400069462846FDF762FF012221462846FEF724
:102D500035F8FFF7BBFB07480068016841F0400108
:102D6000016000F04DF807B030BD0000303802407F
:102D7000000402403C0500202DE9F04114460D46B8
:102D8000064600F06DF8DFF854804FF4807700229B
:102D900039464046FEF712F8022000F021F8C5F34C
:102DA000074000F01DF8C5F3072000F019F8E8B25D
:102DB00000F016F8BC4204D9FF24307800F010F877
:102DC000761C641EA4B2F8D2012239464046FDF7B3
:102DD000F5FFBDE8F04100F029B800000004024012
:102DE00001B582B04FF47A700090012301AA02A9C4
:102DF0000248FEF7BFFD9DF804000EBD3C05002013
:102E000070B5094D4FF48074002221462846FDF725
:102E1000D5FFAB20FFF7E4FF21462846BDE8704010
:102E20000122FDF7CBBF00000004024070B50B4D3E
:102E30004FF48074002221462846FDF7BFFF05208D
:102E4000FFF7CEFFA520FFF7CBFFC007FAD1214641
:102E50002846BDE870400122FDF7B0BF00040240E3
:102E600070B5094D4FF48074002221462846FDF7C5
:102E7000A5FF0620FFF7B4FF21462846BDE87040B5
:102E80000122FDF79BBF0000000402402DE9F04144
:102E90001D4617460E460446DDF8188008E0681CFB
:102EA00006D0FDF791FFA0EB0800A8420BD255B168
:102EB0002068806836EA000030D00020B842EED1A9
:102EC0000020BDE8F0812068416821F0E001416008
:102ED0006068B0F5827F0BD1A068B0F5004F02D0DA
:102EE000B0F5806F04D12068016821F040010160D5
:102EF000A06AB0F5005F09D12068016821F4005193
:102F000001602068016841F400510160012084F8EB
:102F10005100002084F850000320D2E70120CDE7C3
:102F20007047FEF74BB9000030B593B030216846CA
:102F3000FDF790F914210CA8FDF78CF9194800252C
:102F4000016841F080510160006800F080501190EC
:102F50001548016841F4804101600068022400F4D2
:102F60008040119001200090000401908001CDE983
:102F7000064004200890A820CDE9090407200B9002
:102F80006846FEF785FA0CA90F2081E831004FF45E
:102F9000A0500F90E002109005210CA8FEF7B0F9A8
:102FA00013B030BD40380240007000401048016846
:102FB00041F4700101600F48016841F001010160B6
:102FC0000C4A00210832116002680B4B1A40026063
:102FD000031D0A4A1A60026822F480220260054832
:102FE0000C300160024958068039086070470000C3
:102FF00088ED00E000380240FFFFF6FE10300024AC
:1030000010B500224FF6FF7300EB8204B4F888433A
:1030100024040BD49A4207D002F00F0300EB830084
:1030200041F40041C0F88813D0B210BD521CD2B296
:103030000B2AE9D31A46F7E77FB51C46012501AEF6
:103040000023009586E80E0002232A46214600F060
:10305000CDFB04B0002070BD7FB51D4690F81D3338
:10306000089C03B100240123CDE90031CDE90224FD
:1030700002230022294600F0B9FB04B0002070BDF5
:1030800010B500F0DDFA002010BD8278012A07D1CA
:103090000222027401224274002242828182C28290
:1030A0000022114600F00FB87FB51C46012501AE85
:1030B0000023009586E80E002A46214600F096FB84
:1030C00004B0002070BD70B504460120A378054609
:1030D000012B0BD0022B08D1204600F014F958B177
:1030E000032809D0022800D1A57070BDA160A2817B
:1030F00025760221A17070BDA5700021217670BDDA
:103100007FB51D4690F81D33089C03B100240123B0
:10311000CDE90031CDE9022400231A46294600F00A
:1031200065FB04B0002070BD1FB500231446CDE937
:1031300000310822CDE902231A46214600F056FB51
:1031400004B0002010BDFDF7A5BC000070B5054619
:10315000002005F54E7500BF00EB800404EBC004B1
:1031600005EB4404E67B0A348E4201D0FF2909D1E5
:10317000A679964201D0FF2A04D1E4799C4206D078
:10318000FF2B04D0401CC0B20228E5D3FF2070BD45
:103190000B2907D200EB8100B0F88813C1F30E01B0
:1031A000C0F888130020704730B48578029C012D48
:1031B0000FD141F080010174062141740321428244
:1031C000B1EB122F02D140F2094100E000218182CF
:1031D000C482224630BC1946FFF775BF0A880378BF
:1031E0001A440A80017808447047F8B50E4600F189
:1031F0001C05009104462B464FF400720021FFF796
:10320000D3FF070005D13246294604F54E7001F080
:10321000E7F83846F8BD38B50D460091044600F58C
:103220008E734FF480720021FFF7BEFF002839D162
:1032300094F81C1184F8261394F81D1184F82713B0
:10324000B4F81E11A4F8281394F8201184F82A1356
:1032500094F8211184F82B1394F8221184F82C137C
:1032600094F8231184F82D13082D1BD9B4F82411D8
:10327000A4F82E13B4F82611A4F83013B4F82811CA
:10328000A4F8321394F82A1184F8341394F82B110B
:1032900084F8351394F82C1184F8361394F82D1112
:1032A00084F8371338BDF8B51C461646009341F430
:1032B000407200F58E731D460021FFF775FF002850
:1032C00014D16978032911D129788A1EA24200D825
:1032D00014460021A2B2AD1C04E06B5C891C06F808
:1032E000013B89B29142F8D300213170F8BD010051
:1032F0004FF0000004D0012901D0022901D00220A2
:103300007047012070472DE9F84F0125017E0446E2
:103310000B26092728464FF007084FF0050A4FF003
:103320000D090C2919D2DFE801F0B4060E26313C54
:1033300048606B7C899A627904F110012046FFF79E
:10334000F3FE022012E06179204600F0CDF9012859
:1033500004D0042871D002287FD09AE0207CE18A32
:1033600000F0800021B180283AD10320207690E03F
:10337000802814D02EE0D4F8C803E0812379A289F4
:103380002046A168FFF790FE0420EFE72179204650
:1033900000F0AAF9012802D0052840D056E027768F
:1033A00077E000906379A2892046A168FFF7A8FE24
:1033B000D4F8C803E0810620D8E76179204600F000
:1033C00093F9012806D0052807D0022808D0042840
:1033D00009D05EE084F818805BE00C2020761EE0C7
:1033E00084F818A055E0267652E000222379114691
:1033F0002046FFF759FED4F8C803E0810820B5E75E
:103400002179204600F070F9012804D0042824D046
:10341000052804D03DE084F81890002539E0032504
:1034200037E000900022637911462046FFF768FEDE
:10343000D4F8C803E0810A2098E70EE061792046BD
:1034400000F052F9012804D00228A8D0042804D0A2
:103450001FE0002584F818901BE0267619E0617EB5
:10346000491CC9B26176022902D82076A07010E00A
:10347000D4F8D82306212046904700256576617947
:103480002046FFF785FE21792046FFF781FE257053
:1034900002252846BDE8F88F2DE9FE4304460126A3
:1034A000407800250D27B04604F58E7208280CD20E
:1034B000DFE800F0042A3C686F86929908212046D4
:1034C000FFF7A9FE10B103280DD097E094F82D0363
:1034D000A07184F8018094F81D130091CDE901508A
:1034E00094F81C3338E094F81E03401CC0B284F8F2
:1034F0001E03032818D861792046FFF749FE217979
:103500002046FFF745FE59E012212046FFF783FED3
:10351000A8BB022047E000BF94F81E03401CC0B2C5
:1035200084F81E03032840D9277067E00121204654
:1035300001F0F5F810B1032822D05FE00220FFF778
:1035400002FE84F81C8303206070A07994F81D1398
:10355000CDE900154346029021798022204600F0F3
:1035600035FFA07994F81D130091CDE9015094F82E
:103570001C3361790022204600F028FF3EE00EE077
:1035800027702EE009212046FFF72FFE38B90420CE
:1035900009E0B4F83A132046FFF727FE10B10328DC
:1035A000BAD02BE00520607028E061792046FFF753
:1035B000EFFD21792046FFF7EBFD657025701DE0DA
:1035C00094F8341306250AE0FF232046FFF76BFE2C
:1035D00038B1032805D011E094F8351307250029E8
:1035E000F2D165700AE094F8361331B1FF2320461A
:1035F000FFF759FE08B1032800D100263046BDE888
:10360000FE8370B50E46040018D084F8D023002540
:10361000C4F88053C4F8845304F54874FCF7CCFE16
:10362000E57025706570A570A4F548740EB1C4F8F6
:10363000D863204600F06CF8002070BD022070BDF9
:1036400010B5D0F8D403FDF7E0FBBDE81040FFF75C
:103650004EBE012180F82013002180F8211380F84C
:1036600022130846704710B50446012084F8210350
:10367000002084F8200384F82303204600F0ADF8EE
:1036800021792046FFF784FD61792046FFF780FD10
:10369000002010BD10B5C820FDF7FCF9002010BDBA
:1036A000D0F8D403FDF7ABBB10B50124D0F8D40398
:1036B000FDF79BFB20B1012805D0022803D101E0D2
:1036C000002400E00224204610BDD0F8D40301EB12
:1036D000810100EBC10090F83B1011B190F850004F
:1036E000704790F851007047D0F8D403FDF780BBC5
:1036F000D0F8C813491CC0F8C81301780B2905D1AC
:10370000D0F88013002901D089690847704700006C
:1037100010B5044690F8D003F0B9104810490222C1
:10372000C0F8C042C4F8D40301600C2181600121BB
:10373000C16000210161C0E906210162C1624163EB
:10374000FDF78FFC08B1FCF760FE0448FDF74AFB6B
:103750000146204600F025F8002010BD300A002068
:1037600000000440FEB508AF97E870008DE87000D7
:10377000D0F8D403FDF75BFBBDE8FE40FFF7B7BD13
:10378000002180F823137047012180F8231370472C
:1037900010B5D0F8D403FDF7E1FCBDE81040FFF709
:1037A000A6BDC0F8C8137047D0F8D40301EB81015F
:1037B00000EBC10090F83B1011B180F8502001E0FF
:1037C00080F851200020704710B5D0F8D403FDF7E1
:1037D000CCFCBDE81040FFF78ABD10B5D0F8D4038B
:1037E000FDF7D9FCBDE81040FFF781BD2DE9FF4191
:1037F0000DF1280898E8F0008DE8F000D0F8D40327
:10380000FDF74FFB04B0BDE8F041FFF770BD034684
:103810000220D3F88013C9692AB1012A05D1897918
:103820001846FFF732BCC979FAE77047D0F8800331
:103830000549C069416505498165012100F8501FAE
:1038400081700020704700005553424350403020A3
:103850002DE9F84F0746D0F8800301263546C469A4
:103860004FF00B0A4FF00A0B94F850004FF0090983
:103870004FF007080C2845D2DFE800F0D2061125EA
:103880002E4852757EA7AFCB84F86110022084F8D1
:103890005000009563791F2204F1540159E06179C9
:1038A0003846FFF721FF012802D002287ED03FE0F2
:1038B000E06D002829D094F86000000601D50320AF
:1038C0004BE0052049E0237962893846D4F88C1012
:1038D000FFF7B2FB042040E021793846FFF704FFF0
:1038E00001284FD16289E06D90420CD9D4F88C1038
:1038F000801A1144C4F88C10E0656BD023793846E7
:10390000FFF79AFB8CE00020E06563E000956379A7
:1039100022893846D4F88C10FFF79EFB06201CE065
:1039200061793846FFF7E0FE012804D00228C8D0AC
:10393000052815D074E02289E06D9042E3D9D4F8CF
:103940008C10801A1144C4F88C10E06542D00095A8
:1039500063793846FFF780FB62E084F850005FE04F
:1039600084F850B05CE023790D2204F178013846E8
:10397000FFF762FB0820F0E721793846FFF7B4FE35
:10398000012802D005281DD04AE004F8505F3846CF
:10399000A570D7F88013CC692179FFF781FE0D2837
:1039A0000CD12149A06F884208D100E036E0A16D1A
:1039B000E06F884202D194F8840008B102262FE01B
:1039C00000262DE084F850902AE000223846FFF7C8
:1039D0001EFF38B984F8508022E001223846FFF7F4
:1039E00016FF10B1042811D01AE061793846FFF7AC
:1039F0006CFEC0F10100C2B261793846FFF7D4FE17
:103A0000217900223846FFF7CFFEDBE784F850A08B
:103A100006E0384600F015F8060001D184F8505051
:103A20003046BDE8F88F000055534253A12202747E
:103A3000FE2242740022428282820122C282FFF769
:103A400042BB21210174FF21417400214182818206
:103A5000C1820A46FFF737BB70B5D0F88013012545
:103A6000CC69A17B21B1022902D003292ED127E004
:103A70002146FFF7DBFF00210546032801D01DB1D9
:103A800024E02170002504E02078022801D90220DA
:103A900001E02078401C2070002002230CE000BFD1
:103AA00000EB800202EBC00204EB8202401C82F8B1
:103AB000923082F8C110C0B222788242F0D805E07C
:103AC0000021FFF7E2FA08B9E07BA073284670BD39
:103AD00010B51446D0F880230078D3690B2801D0A4
:103AE000022010BD01EB810000EBC10003EB80015F
:103AF000342220469031FCF794FB002010BD70B5B5
:103B00000546D0F880030026C469617939B128469A
:103B1000FFF7B6FA61792846FFF73AFB667121791B
:103B200039B12846FFF7ACFA21792846FFF730FB78
:103B30002671D5F88003C06920B102F039FCD5F8B0
:103B40008003C661002070BDFEB50546D0F8800335
:103B50005023062201792846FFF7F8FA0646FF2887
:103B600023D0022E21D20146284600F0CDFDE0B937
:103B70004FF48077384602F009FFD5F880130446E9
:103B8000C861200011D03946FCF764FB06EB8600C3
:103B900000EBC60005EB400090F84E130A0606D570
:103BA000E171B0F85013618105E00220FEBDA17102
:103BB000B0F85013218190F856130A0604D5E1712C
:103BC000B0F85803608103E0A171B0F85803208178
:103BD000002020736073A073A1792846FFF710FAC4
:103BE0006071E1792846FFF70BFA20712846FFF74C
:103BF0001DFE208995F81D1302260091CDE9016074
:103C000095F81C33A2796179284600F0DFFB6089C2
:103C100095F81D130091CDE9016095F81C33E27908
:103C20002179284600F0D2FB217900222846FFF7AF
:103C3000BBFD617900222846FFF7B6FD0020FEBDDE
:103C4000D0F880130078C9690B2802D1087B0128BD
:103C500000D0002070472DE9F0470746D0F88003D8
:103C60004FF0010AC469207B10B101282DD12CE14D
:103C7000B4F8F800217801254FF0000888426FD28F
:103C800000EB800101EBC00004EB8000022680F80D
:103C90009150B4F8F8004FF0050900EB800101EBFA
:103CA000C00104EB810292F8901009290DD2DFE8DF
:103CB00001F0050C1F880DB10C0CFF00042082F8E8
:103CC0009000D7F8C803C4F8FC0000E1C1B2384640
:103CD0009F3200F08BF940B9B4F8F80000EB800196
:103CE00001EBC00004EB8000B6E002287DD099E033
:103CF000C1B2384600F0AAFA10B1022831D091E0E2
:103D0000B4F8F80000EB800101EBC00004EB800088
:103D100090F8921011B180F8C15001E080F8C18094
:103D2000B4F8F820032002EB820101EBC20104EB9E
:103D3000810181F89000B4F8F81001EB810202EBE8
:103D4000C10104EB810181F89180B4F8F81001EB16
:103D5000810202EBC10104EB810181F89280B6E09F
:103D6000AAE0B4F8F80000EB800101EBC00004EB1E
:103D7000800090F89210022902D080F8C15001E032
:103D800080F8C180B4F8F81001EB810202EBC101A8
:103D900004EB810181F89090B4F8F80000EB800109
:103DA00001EBC00004EB800080F89150B4F8F800FB
:103DB00000EB800101EBC00004EB800080F8926012
:103DC00085E0C1B23846943200F0BAF900288CD1AF
:103DD000B4F8F80000EB800101EBC00004EB8000B8
:103DE00080F89050B4F8F81000E008E001EB810290
:103DF00002EBC10104EB810181F8918031E0B4F85C
:103E0000F81001EB810202EBC10104EB810181F8A2
:103E100090905CE0C1B238469C3200F0CEF920B1FF
:103E2000022823D004282DD051E0B4F8F80000EB8C
:103E3000800101EBC00004EB800090F89C10062983
:103E400001D002290BD1D7F8C813D4F8FC20891A65
:103E500042F21072914202D280F8906037E080F80E
:103E6000905034F8F80F401C208030E0B4F8F8107F
:103E7000082001EB810202EBC10104EB810181F812
:103E8000900024E0B4F8F80000EB800101EBC000E2
:103E900004EB800080F89050B4F8F80000EB80014B
:103EA00001EBC00004EB800080F891600FE0FFE7B9
:103EB000401CA4F8F8000AE0A4F8F8802573D7F8AD
:103EC000D82302213846904701E04FF0000A5046BF
:103ED000BDE8F0872DE9F843D0F8802301EB81039A
:103EE00003EBC103D269012502EB8304082794F890
:103EF00090302E46052B22D000224FF00508062BCD
:103F000002D0072B2AD10CE0002300921A4600F0C1
:103F1000D7F80BE002280FD018E000BF84F89070AB
:103F20001BE0002300921A4600F0B6F90028F1D1F8
:103F300084F89060002511E084F890800EE004F190
:103F40009C0200F03AF920B1022807D00428E5D0FD
:103F500004E004F8906F0220607002252846BDE856
:103F6000F8832DE9F8430446D0F88003089E0F46F5
:103F7000C56994F8200360B120780B2809D107EBBC
:103F8000870000EBC70005EB800090F89010012936
:103F900002D00220BDE8F8830621297380F8901032
:103FA000A5F8FA7039462046009600F089F8D4F852
:103FB000C88340F271204FF00109464309E0D4F86C
:103FC000C813A1EB0800B0EB061F0CD894F820032F
:103FD00048B139462046FFF77DFF0128EFD085F82C
:103FE0000C900020D6E785F80C90D2E72DE9F0413F
:103FF0001546D0F8802302270026D4694FF0010827
:1040000094F85220012A02D0022A56D126E0242018
:104010008022E06584F860200A2284F86220C4F8D7
:104020006360C4F86760A4F86B60122284F86320B0
:10403000490184F8641084F8656084F8666084F847
:10404000670084F86860022084F8508084F8520089
:1040500004F110000127C4F88C002EE0FFF7F8FBF4
:1040600007002AD122212846FCF7F4F8D4F88C0066
:10407000007800F01F006870D4F88C0000784009C8
:104080002870D4F88C004078000602D585F80280AC
:1040900000E0AE7054F88C0F10228168C5F8031050
:1040A000C068C5F80700216805F10C001031FCF765
:1040B000B8F82068006AC5F81D003846BDE8F081F0
:1040C0002DE9F041154602461F46D2F88033022002
:1040D000069EDC6994F85230012B06D0022B2DD1BC
:1040E000BDE8F0411046FFF7B3BBB4F898001021CB
:1040F0007043E065802084F860000A2084F8620044
:1041000004F16300FCF7A6F8282084F86300280E69
:1041100084F86500280C84F86600280A84F8670093
:1041200084F86850300A84F86A0084F86B600120D3
:1041300004F8500F0220A0700120E763BDE8F08171
:1041400070B51646D0F880230125D46994F8522022
:10415000012A02D0022A2ED11AE00820E065802030
:1041600084F860000A2084F86200102104F16300E2
:10417000FCF770F8252084F86300012084F85000D3
:10418000022084F8520004F11000C4F88C0012E000
:10419000FFF75EFB05000ED154F88C0F4188427882
:1041A00049BA007862F31F4141EA0060306020683C
:1041B000C08840BAB080284670BD70B5154602462A
:1041C0000E46D2F880130220CC6994F852100129CF
:1041D00014D0022911D131461046FFF739FB0028CF
:1041E0000BD154F88C1F897801F00F0129702168D8
:1041F000097B69702168497BA97070BD0E258020FC
:10420000E56584F860000A2084F86200102104F15A
:104210006300FCF71FF8032084F86300700184F842
:104220006400002084F8650084F8660084F8675014
:1042300084F86800012084F85000022084F85200BD
:1042400004F11000C4F88C00012070BD70B5024666
:104250000220D2F88033DC6994F85230012B06D06A
:10426000022B18D1BDE870401046FFF7F1BA0025C7
:10427000E56584F860500A2084F86200102104F19A
:104280006300FBF7E7FF84F86350012004F8500F48
:104290000220A070012070BD2DE9F04115460246B4
:1042A0001F46D2F880330220069EDC6994F8523013
:1042B000012B06D0022B2DD1BDE8F0411046FFF7AF
:1042C000C7BAB4F8980010217043E065002084F864
:1042D00060000A2084F8620004F16300FBF7BAFF73
:1042E0002A2084F86300280E84F86500280C84F8DE
:1042F0006600280A84F8670084F86850300A84F859
:104300006A0084F86B60012004F8500F0220A0704E
:104310000120E763BDE8F08100207047D0F88023DA
:104320000078D2690B2808D101EB810000EBC100B5
:1043300002EB800090F8910008B100207047012046
:1043400070472DE9F8430446D0F88003089E0F46D5
:10435000C56994F8200360B120780B2809D107EBD8
:10436000870000EBC70005EB800090F89010012952
:1043700002D00220BDE8F8830721297380F890104D
:10438000A5F8FA70394620460096FFF785FFD4F865
:10439000C88340F271204FF00109464309E0D4F888
:1043A000C813A1EB0800B0EB061F0CD894F820034B
:1043B00048B139462046FFF78DFD0128EFD085F83A
:1043C0000C900020D6E785F80C90D2E7FEB508AF38
:1043D00097E870008DE87000FFF7C4F90020FEBD7B
:1043E0002DE9F84105460B782B704B786B704B88A4
:1043F0006B800B792B714B796B718B79AB71CB79AE
:104400000846EB710027097A2972092A54D9092133
:10441000ADF800104BE06946FEF7E0FE4178042954
:1044200043D107EB870101EBC70105EB4108017898
:1044300088F80A10417888F80B10817888F80C10F9
:10444000C17888F80D10017988F80E10417988F844
:104450000F10817988F81010C17908F10A0488F8E2
:104460001110017A2172002615E06946FEF7B6FEAA
:10447000417805290FD108EBC60102780A75427808
:104480004A7582788A75C278CA7582880A83827969
:10449000761C8A76F6B22179B14204D96A88BDF8D1
:1044A00000108A42E1D87F1CFFB2022F04D2698833
:1044B000BDF800209142AED8BDE8F881FEB50221DA
:1044C00004468DF8001094F821230020012A01D120
:1044D0000322227022780D26082700250C2A17D2E5
:1044E000DFE802F0061734DEF869C27C848C9AD7C4
:1044F00094F8200300280BD001202070C820FEF77C
:1045000022FE2046FFF744F984F81C53C4F8CC532C
:10451000E0E094F8230301280DD0D4F8CC03B0F5E3
:104520007A7F0CD994F81F03401CC0B284F81F0393
:10453000032870D86DE084F81F532170CAE00A3058
:10454000C4F8CC030A20FEF7FEFDC3E0D4F8D8235C
:1045500012B10421204690476420FEF7F4FD204666
:10456000FFF7A2F884F81D030520207000212046E3
:10457000FEF746FD607180212046FEF741FD207167
:104580000146A07994F81D230092CDE9015094F8DA
:104590001C3380222046FFF719FFA07994F81D13E1
:1045A0000091CDE9015094F81C3361790022204636
:1045B000FFF70CFF8EE02046FEF76EFF8DF800003F
:1045C0009DF80000002808D184F8245394F837039C
:1045D000012801D0072058E027707BE0D4F8D823C9
:1045E000002A77D0012120469047F5E794F83D1343
:1045F000204600F0A2F8B0BB092046E094F83F0343
:104600004FF00A05800604D50121204600F0A3F8EA
:1046100048BB25705EE03AE0D4F8841319B3C4F8BF
:10462000805394F8471300BF04EB8002D2F878233C
:1046300012798A4206D104EB8000D0F87803C4F8DE
:10464000800304E0401CC0B20228EDD32846F0B13C
:10465000816820468847D0B906202070D4F8D82336
:1046600003212046904735E0D4F8800378B10169F2
:10467000204688478DF800009DF8000020B19DF885
:104680000000022803D025E00B20207022E02670D5
:1046900020E0D4F88003E8B141692046884719E05A
:1046A00084F821532046FBF787FED4F8800320B11D
:1046B000C16820468847C4F88053D4F8D82312B183
:1046C00005212046904794F82203012804D0204673
:1046D000FFF77AF80020FEBD84F82253204600F050
:1046E00048F8F7E710B50246002059B1D2F88433F4
:1046F000022B07D202EB83045B1CC2F88433C4F89C
:10470000781310BD022010BD0246002092F83C3301
:104710008B4202D982F824137047022070478278B6
:10472000012A06D100220274052343744182828249
:10473000C28200221146FEF7C6BC8278012A06D149
:10474000002202740923437441828282C2820022C1
:104750001146FEF7B8BC8278012A06D10022027405
:104760000323437441828282C28200221146FEF7F3
:10477000AABC10B50446FFF727F801212046FEF732
:1047800089FF002010BD000001290FD00848022930
:104790000BD0042908D0052908D10321017000227B
:1047A00004A1104601F04EB90121017070470000CC
:1047B00023000020000000000020704730B58DB0BD
:1047C0001546012449B1012909D0022910D0032935
:1047D00018D004240DB0204630BD0024FAE701466D
:1047E0006A460E48FFF774F90028F3D1019813E0E8
:1047F00001466A460948FFF76BF90028EAD1BDF87F
:10480000080009E001466A460448FFF761F90028FC
:10481000E0D1BDF80800400A2860DEE75406002019
:1048200030B58FB0054600930B46014601240C4875
:10483000FFF797FB68B101AA29460948FFF748F935
:104840009DF81100042806D0282804D03A2803D166
:1048500001E0002400E003240FB0204630BD00003A
:104860005406002010B5014601240348FFF756FD09
:1048700000B10024204610BD5406002030B58FB092
:10488000054600930B46014601240E48FFF759FDEB
:1048900078B101AA29460B48FFF71AF99DF81100D3
:1048A00004280AD0272806D0282806D03A2805D17F
:1048B00003E0002402E0022400E003240FB02046BD
:1048C00030BD00005406002070B5044606990A9ECB
:1048D000049D0D98012916D0E06840F04000E0608A
:1048E000204600F02BF8A16B1EB321F48031A163A8
:1048F000012D07D1A16841F00601A160A16841F036
:104900002001A16070BDA16B21F48031A163E16839
:10491000094A1140E160E16821F44011E160012899
:1049200003D1E06840F48010E060204600F006F813
:10493000DEE741F48031DAE7BFFFBDFF01220C4919
:1049400002E0521C8A420BD80369002BF9DA026993
:1049500042F001020261012204E0521C8A4201D9A4
:10496000032070470369DB07F7D100207047000080
:10497000400D0300816821F0010181600020704733
:1049800000EB4110064AC0F81025D0F8001521F0C0
:10499000804141F00041C0F8001500207047000040
:1049A0000000088008B5D0F8402422F02E020092C2
:1049B000D20405D4012909D1009941F4805103E0C2
:1049C00021B9009921F48051C0F84014002008BD9D
:1049D000816841F0010181600020704700211022B0
:1049E0000261054A491C914201D9032070470369BD
:1049F000DB06F7D400207047400D0300002220237F
:104A000043EA811101610549521C8A4201D9032000
:104A1000704703699B06F7D400207047400D0300E0
:104A2000D0F8080480B2704708B5D0F84004009070
:104A3000C0F3414008BD406900F00100704700EB41
:104A40004111D1F800254FF47A73C2F381426AB163
:104A5000022A0BD0D1F8002542F08042C1F800258F
:104A6000D0F8100410F47F0F2ED009E0D1F8002503
:104A700042F08042C1F80025C06A10F47F0F07D0D1
:104A8000D1F8000540F00040C1F800050020704753
:104A9000D1F8000520F00040C1F80005D1F800056C
:104AA00040F00040C1F80005D1F8000520F40040B6
:104AB000C1F80005012002E0401C9842E6D8D1F878
:104AC0000025002AF8DBE1E7D1F8000520F00040DE
:104AD000C1F80005D1F8000540F00040C1F800051C
:104AE000D1F8000520F40040C1F80005012002E0E3
:104AF000401C9842CAD8D1F80025002AF8DBC5E747
:104B00002DE9F0430026DDE9078500EB4114771E0F
:104B1000DDF82490C4F80875CDB1012D32D0022DF6
:104B200015D0032D27D00126D0F8187401F00F0CF2
:104B3000012101FA0CF10F43C0F81874816941F0AA
:104B40000071816110062AD54FF4004028E040F240
:104B50009D47C4F80C75170605D500BFD4F80C7531
:104B600047F4807718E0C76BFF05DDD5D4F80C75E6
:104B700047F0600710E040F29D67C4F80C75170617
:104B8000ECD4D1E740F22527C4F80C751706CBD535
:104B9000D4F80C7547F4C077C4F80C75C4E700204E
:104BA000B8F1020F18D000214FF0FE5707EA8353E7
:104BB0004FF4F04707EAC22213434FF4402202EABF
:104BC00085421343C9F30A02134303430B43C4F85A
:104BD0000035032D03D008E04FF40031E4E7D4F8AA
:104BE000000540F00050C4F800053046BDE8F083F1
:104BF000D0F8140480B27047F8B54C78C56B4FF408
:104C00008073ED054FF0000715D50D799DB912B1F0
:104C1000012A07D00FE04D79012D0CD12146FFF775
:104C2000AFFE8CE000EB4415D5F80C6526F060066D
:104C3000C5F80C654F710E695EB10D892E44761E64
:104C4000B6FBF5F6B6B29E4204D91E462B020B61A6
:104C500000E00126CB78CBB30B897343C1F8103049
:104C60006FF06045C3F3120305EAC6452B438D7A06
:104C70004FF0C04606EA45752B4300EB4414054649
:104C8000C4F8103512B1CB68C4F81435D5F808341F
:104C9000D4F8005543F3000325F00055C4F800553F
:104CA000D4F800555B1C45EA4373C4F80035D4F8CA
:104CB0000055244B1D601D6825F080451D60CD7892
:104CC000002D1D6805D045F4004504E0FFE70B69A1
:104CD000C6E725F400451D601D6845F000451D60D0
:104CE0001B68C4F8003552BBCA7842BB0A6932B3AC
:104CF000CB7933B1012B0FD0022B02D0032B17D16C
:104D00000AE0D21CC36AC2F38F029BB293420FD255
:104D1000826942F020020AE0D21CD0F81034C2F3BB
:104D20008F029BB2934203D2826942F08062826119
:104D300000970A8A93B24A78C96800F00EF90020F9
:104D4000F8BD00003C0000202DE9F0410025DDF811
:104D5000188017460446C0F8005E806B40F40010CF
:104D6000A063A06B20F40020A063A06B20F480203F
:104D7000A063E06BC00501D5032B04D0D4F8000478
:104D800020F0040103E0D4F8000440F004012046C0
:104D9000C4F800141021FFF731FE2046FFF71EFE75
:104DA0000020461E07E000BF04EB4011C1F8086573
:104DB000C1F80C55401C8742F6D801212046FFF768
:104DC000F1FDC820FBF766FEA5616661E06BC005DA
:104DD00006D54FF4007060620C48A0620C4804E0F5
:104DE000802060620B48A0620B48C4F80001B8F153
:104DF000000F03D1A06940F01000A061A06907492D
:104E00000843A0610020BDE8F0810000000200011D
:104E10000003E00080006000E0004000080020A3E4
:104E2000D0F8002422F00302C0F80024D0F80024B7
:104E300001F003031A43C0F80024012902D002291B
:104E400003D006E04BF6803101E041F27071C0F80A
:104E50000414002070474169806908407047D21CE3
:104E600010B59308002200F5805002E00468521C3F
:104E700010C19A42FAD3084610BD38B50446D0F89E
:104E8000400420F02E00009040F48070C4F84004EC
:104E9000642004F58864FBF7FDFD009820F4807021
:104EA00020600A20FBF7F6FD002038BD10B5C2686F
:104EB00022F0C042C260012902D029B1012010BDF8
:104EC000C16841F0005102E0C16841F08041C16019
:104ED0003220FBF7DFFD002010BD000030B5044696
:104EE0008068002520F00100A06010212046FFF717
:104EF00085FD2046FFF772FD5FF0000004EB4011D6
:104F0000D1F8002522F0802242F08042C1F800252D
:104F1000401C0F28F2D900204FF47A7304EB4011A3
:104F2000D1F8002522F4004242F04042C1F80025A9
:104F30006D1C9D4203D8D1F80025002AF8DB401CE7
:104F40000F28EBD94FF0FF30C4F814046061A0685B
:104F500040F00100A060002030BD10B5029C64B993
:104F6000DB1C9C0800EB0230002300F5805002E0BF
:104F700004C902605B1CA342FAD3002010BDFEE707
:104F80000907090E002804DB00F1E02080F8001476
:104F9000704700F00F0000F1E02080F8141D70470A
:104FA00002E008C8121F08C1002AFAD170477047F2
:104FB000002001E001C1121F002AFBD17047000050
:104FC00010B504460020E070401E2063204601F02A
:104FD00024FD08B1042010BD04F2322001F02EFBA4
:104FE000A0F52A41553901D0032010BD94F83400B2
:104FF000E92805D0EB2814D194F83600902810D178
:1050000004F16A0001F00FFB0749B1EB002F06D055
:1050100004F1860001F007FB0449884201D1002019
:1050200010BD022010BD00000046415446415433DB
:1050300000E0401C02780AB18A42FAD1D0B270472F
:10504000F0B50022144D134605EB021426685EB13C
:105050000768BE4209D166688768BE4205D1A46868
:105060004669B44204D000E00123521C022AEBD36B
:10507000022A01D069B904E04BB9022907D01220F5
:10508000F0BD05EB02108089B0F5807F01D00020D3
:10509000F0BD1020F0BD0000440D002030B500210F
:1050A000054B0C4603EB01121568854200D11460D4
:1050B000491C0229F6D330BD440D00200268490A7C
:1050C000C06A5289B1FBF2F1001D04C81AB19142C5
:1050D00003D3891AF8E70020704700680844704736
:1050E0008269891E921E8A4201D800207047C26AD6
:1050F000408901FB002070472DE9F05F82460C4695
:1051000001F11A0001F09AFA78BB2078012700F02B
:105110003F00401E00EB8001DFF8589001EBC00516
:1051200000264FF6FF7B00BF19F80600204401F06F
:1051300085FA80466FB1FF2D17D200F091FF074628
:105140003AF815006D1C00F08BFF87420DD14746E1
:1051500001E0D84509D1761C0D2EE5D32078400614
:1051600006D52FB13AF8150010B10020BDE8F09F28
:105170000120FBE7907B00082DE9F04105680F0056
:10518000804606D001F07CF9022809D20120BDE852
:10519000F0812E6916B1A869B04207D8012605E052
:1051A000411CF4D0A9698142F1D83E463446A86931
:1051B000641CA04202D80224022E0AD32146404693
:1051C00001F05EF938B10128E1D0411CDFD0B442D2
:1051D000EDD10020DBE74FF0FF363246214628466E
:1051E00001F06EFC30B957B122463946284601F02D
:1051F00067FC20B101280FD001242046C7E72C61AD
:10520000D5E90501891E884201D8401E68612879C8
:1052100040F001002871F0E73446EEE72DE9F84F41
:10522000824600680E680024C76888462546705D7F
:105230006D1C20281AD32F2813D05C2811D0FF2CE6
:1052400039D2012100F0F0FE5FEA000933D0B9F154
:10525000800F12D201466DA0FFF7EAFE58BB0CE0AA
:105260006D1C715D2F29FBD05C29F9D07219C8F82B
:105270000020202805D204250FE027F81490641C94
:10528000D5E7002509E000BF07EB440030F8020C29
:10529000202801D02E2802D1641E002CF4D1002039
:1052A00027F814003CB10B2220210AF1240001F060
:1052B000ADFB002603E00620BDE8F88F761C37F82A
:1052C00016002028FAD02E28F8D01EB145F003058C
:1052D00000E0641E2CB107EB440030F8020C2E28CD
:1052E000F7D14FF000094FF0080BCDF8009000BF48
:1052F00037F8160006F101065FEA000824D0B8F17D
:10530000200F04D0B8F12E0F04D1A64202D045F0F0
:105310000305EDE70098584501D2A64219D1BBF12B
:105320000B0F0FD0A64201D045F003050CD84FF06B
:10533000080000904FEA896026464FF00B0B4FEAB9
:105340001069D5E745F003059AF82400E52838D020
:105350003AE04046B8F1800F10D3002100F064FE1F
:105360005FEA000805D02C4901EB080010F8800C1A
:10537000804645F00205B8F1000F04D0014627A091
:10538000FFF756FE20B14FF05F0845F003050FE030
:10539000A8F14100192802D849F0020908E0A8F153
:1053A0006100192804D8413049F001091FFA80F83A
:1053B000009A0AEB020181F824800098401C0090BA
:1053C00096E705218AF82410BBF1080F03D14FEAB4
:1053D00089604FEA1069C9F38100032803D06FEA9E
:1053E0000901890701D145F00205A90709D409F08F
:1053F0000301012901D145F01005012801D145F033
:1054000008058AF82F50002056E70000222A3A3C6F
:105410003E3F7C7F00000000107B00082B2C3B3DB2
:105420005B5D0000401E022812D20A4901EB001108
:105430008889B0F5807F05D008B1401E80B2888190
:1054400010B103E00020FAE7002008600020704758
:1054500002207047440D00202DE9F047044600214A
:10546000D0F8009000F04FFA00285BD1FF25471ECE
:10547000A84627634846E16901F0CFFA060050D1FB
:10548000216A087850B1CA7AE52802F03F02A27179
:105490003FD0130704D50F2A3BD105E0042640E096
:1054A0000F2A01D0E5B120E094F82F20520632D423
:1054B000420606D591F80D8000F0BF0062690546EE
:1054C0002263A84209D14A7B424506D1D9F80C0093
:1054D000FFF712FE08B16D1E00E0FF25EDB21AE0E5
:1054E000084601F0BCFB40451BD094F82F00C007D4
:1054F0000FD1D4F8201004F124000B2211F8013B45
:1055000010F8015B5B1B521E02D0002BF6D000E0AE
:105510003BB1FF2527630021204600F005F8060077
:10552000A8D03046BDE8F0872DE9F0470546476929
:105530000468C0698946203710B1B7F5001F02D34F
:105540000420BDE8F087F90560D1401CE861A96935
:105550004FF0000829B16089401E10EA572F05D08E
:1055600054E02089B0EB571F1DD94FE0284600F0CA
:1055700087FF064601281BD9701C33D0A069B042B2
:105580003ED8B9F1000F0ED02846A969FFF7F4FD07
:1055900006000BD0012E0BD0701C23D0204601F04A
:1055A000AFFBF8B906E0C5F81C80C9E70720C8E7DB
:1055B0000220C6E74FF40072002104F1340001F02C
:1055C00025FA4FF0000831462046FFF789FD4FF0DD
:1055D000010920630DE000BF84F80390204601F02C
:1055E0008FFB08B10120ACE7206B08F10108401CDB
:1055F000206361894145EFD8216BA1EB080020634E
:1056000031462046AE61FFF76BFDE861C7F3080045
:10561000204434306F612862002092E72DE9F04782
:105620000426FF24894605462746D0F8008047E037
:10563000404601F0F2F9060046D1296A087880B1A7
:10564000CA7AE52802F03F02AA7108D02E2806D0B7
:1056500022F02003082B06D0B446CC4506D0FF2408
:105660001EE0042630E04FF0010CF6E70F2A01D0CF
:1056700014BB1CE0420605D54F7B00F0BF006A69F1
:1056800004462A63A04209D1487BB84206D1D8F823
:105690000C0001F0DBF908B1641E00E0FF24E4B265
:1056A00000212846FFF740FF060009D00CE008461D
:1056B00001F0D5FAB84209D04FF0FF30286305E079
:1056C000E9690029B4D10EB10020E8613046BDE897
:1056D000F08700002DE9F04F0446D0F8009090F8D4
:1056E0002F0089B010F0A00F03D0062009B0BDE84C
:1056F000F08F0025D9F80C0000E06D1C30F8151073
:105700000029FAD104F124010C226846039101F02A
:1057100073F99DF80B00C00719D0402084F82F00C2
:10572000012633466946D9F80C20039800F068FE3C
:105730002046FFF791FE10B9761C642EF1D3642E3B
:105740000FD00428D2D19DF80B0084F82F009DF8CB
:105750000B00800707D50D200C35B5FBF0F56D1C4F
:1057600002E00720C2E7012500212046276800F05B
:10577000CAF888B900263846E16901F04EF958B9EF
:10578000206A0078E5280AD048B100260121204689
:10579000FFF7CAFE0028EED0042812D012E0761CD3
:1057A0002846AE42F2D1451E059567D06169684230
:1057B00001EB4011204600F0A6F85FEA000803D094
:1057C00076E00720804673E0039801F048FA4FF630
:1057D000FF7B07904846E16901F01FF95FEA000886
:1057E00066D1D9F80C0006900598D4F82080C0B294
:1057F0000490079988F80D100F2188F80B100021EC
:1058000088F80C1008F11A0001F025FA0498DFF866
:10581000A4A0401E00EB800101EBC006002701E0C0
:105820005D4503D0069830F81650761C1AF807101C
:1058300001EB0800294601F00EFA05B95D467F1C10
:105840000D2FEDD35D4505D0069830F8160008B150
:10585000049803E0049840F04000049088F80000A9
:10586000012189F8031000212046FFF75DFE5FEA61
:1058700000081DD10598401E0590ABD14846E1694E
:1058800001F0CBF85FEA000812D120220021206A43
:1058900001F0BCF80B22206A039901F0ADF894F8EE
:1058A0002F00216A00F018000873012089F8030016
:1058B00040461BE7907B00082DE9F041016B044650
:1058C00046690568481C04D0204600F01CF80028F2
:1058D00017D1E5274FF001082846E16901F09DF84E
:1058E00060B9216A0F7085F803806169B14208D2FE
:1058F00000212046FFF718FE0028EDD0042800D133
:105900000220BDE8F0812DE9F04107680E4605460A
:10591000B1F5001F36D2F00634D16E61AC6824B9FF
:105920003878032805D3BC6A1CB178894FEA40282F
:1059300012E03889B0EB561F24D9B86A12E0284625
:1059400000F09EFD0446401C1AD0022C1AD3B86900
:10595000A04217D9A6EB080646452146EFD23846A5
:10596000FFF7BEFBC5E9064060B100EB5620E861D9
:10597000C6F308003844343028620020BDE8F081C6
:105980000120FBE70220F9E7084910B50B5C002273
:1059900053B901220A540A1801EB8000127A4068B8
:1059A0000168104688470246104610BD640F00206B
:1059B00030B4054C231804EB80001B7A406804695E
:1059C0001846A44630BC6047640F002030B4054D33
:1059D0002C1805EB8000247A406885682046AC4688
:1059E00030BC6047640F0020044A111802EB8000AD
:1059F000097A40684268084610470000640F00209A
:105A000030B4054D2C1805EB8000247A4068C56839
:105A10002046AC4630BC6047640F002038B50446D1
:105A200000F06CFA00280CD16946204601F091F98B
:105A3000002806D12069FFF7F5FC002801D10021DC
:105A4000216038BD2DE9F74181B090460298009061
:105A5000684600F076FD040003D50B2004B0BDE8D5
:105A6000F0810D4E002756F824501DB12846FFF74F
:105A700015FB2F700198002800D0077046F824000D
:105A800002D0B8F1010F01D00020E7E7002201A900
:105A900002A800F025FBE1E7540000202DE9F743C0
:105AA00094B005000BD002F03F063246694615A8B7
:105AB00000F016FB04004FF0000804D0ECE00920D1
:105AC00017B0BDE8F0830098049004A8159900F081
:105AD00035FC04000ED19DF83F00000601D50624D8
